# blaster_6810.hex
# Version = 1.11
:040000000201BB320C
:01000B0032C2
:0100130032BA
:01001B0032B2
:0100230032AA
:01002B0032A2
:01003300329A
:01003B003292
:01004300328A
:01004B003282
:01005300327A
:01005B003272
:01006300326A
:03006B00020FC8B9
:03007300020FE099
:03007B00020FF67B
:03008300020FF772
:03008B00020FF869
:0300930002104018
:03009B00021088C8
:0300A300021089BF
:0300AB0002108AB6
:0300B30002108BAD
:0300BB0002108CA4
:0300C30002108D9B
:0300CB0002108E92
:0300D30002108F89
:0300DB0002109080
:0300E30002109177
:0300EB000210926E
:0300F30002109365
:0300FB000210945C
:0301030002109552
:03010B0002109649
:0301130002109740
:03011B0002109837
:030123000210992E
:03012B0002109A25
:0301330002109B1C
:03013B0002109C13
:0301430002109D0A
:03014B0002109E01
:0301530002109FF8
:03015B000210A0EF
:030163000210A1E6
:03016B000210A2DD
:030173000210A3D4
:03017B000210A4CB
:030183000210A5C2
:03018B000210A6B9
:030193000210A7B0
:03019B000210A8A7
:0301A3000210A99E
:0301AB000210AA95
:0301B3000210AB8C
:070214007508007509007573
:06021B000A00750B0075DE
:060221000CFF750D00C288
:0102270005D1
:03022E000201B614
:0501B60012023180FE81
:0A023100C203C20490E680E0440A14
:0E023B00F09005DC1216B390E680E0FA54F75E
:0E024900F090E6007412F090E60174E3F0000D
:0E02570000000075AF0790E60BE0FA4403F0DC
:0E0265000000000090E6707480F090E60374D4
:0D02730098F00000000090E6027467F09023
:0E028000E6347409F090E63574FDF090E63631
:0E028E007409F090E63774FDF000000000E502
:0B029C0000D2E890E668E04408F09013
:0E02A700E65CE04401F090E65CE04420F0905C
:0E02B500E65CE0FA4410F090E61274A2F0004D
:0E02C30000000090E61474E2F00000000090CD
:0E02D100E61374A2F00000000090E61574E23F
:0E02DF00F00000000090E61174A0F000000096
:0C02ED000090E61074A0F0000000007506
:0902F900120175820212097D75E3
:09030200120175820412097D75D7
:09030B00120175828612097D754C
:0C031400120175828812097D90E61874B1
:0E03200014F00000000090E61A744CF000008B
:0D032E00000090E6197414F000000000902B
:0E033B00E61B744CF00000000075B5B7000022
:0E034900000075B0B00000000090E6247402C1
:0E035700F00000000090E625E4F090E6267429
:0E03650002F00000000090E627E4F090E68D24
:0E0373007401F00000000090E678E05418FAE3
:03038100B40100C4
:060384009202750E4075A7
:06038A000F409020FA1262
:06039000040F750E30752C
:060396000F1090217E1201
:04039C00040FD2AFC9
:0503A0001003028003C0
:0303A50012131020
:0C03A80030041D9000321216B390E68065
:0E03B400E0440AF09005DC1216B390E680E0FB
:0603C200FA54F7F0C2043A
:0C03C80090E6A1E0FA20E116E508C395DC
:0503D40009FABABF00A8
:0A03D900500B300105120E318003B5
:0303E300120BFCFE
:0C03E60090E6A2E0FA20E1B2E508C39521
:0803F2000960AB120F8F80A619
:0C03FA00E582FA24FF9200EA60047A48D1
:02040600800272
:020408007A5226
:05040A008A820209587E
:0A040F0085821085831190E678E0E5
:08041900FC30E4047C51800278
:020421007C500D
:0A0423008C8274022510FCE43511F0
:0A042D00FD8C068D077800850E2F68
:05043700753000850F87
:05043C0031753200756E
:0304410033007510
:03044400343075DC
:0C0447003500C004C005C006C007C0009E
:0E045300121272D000D007D006D005D0047966
:01046100009A
:0A046200C3E9950F5027E92400F5C7
:0C046C0082E43430F583E0FA60198E82DF
:0D0478008F8388F0EA12169AA388F0E41230
:0A048500169AA3AE82AF830980D35C
:0E048F007A00C3EC9EED9FEA985011EEC395E3
:07049D0010FEEF9511FF8531
:0704A4001082851183EEF0C8
:0104AB00222E
:0704AC00AA82BA000280578A
:0604B300BA090302053C3A
:0604B900BA8003020540B9
:0604BF00BA8F030205776D
:0604C500BA90030205805D
:0604CB00BA91030205DDF9
:0604D100BA940302065478
:0604D700BA95030206962F
:0604DD00BA96030206A21C
:0604E300BA97030206AE09
:0604E900BAA2030205B8EF
:0604EF00BAA5030205BBE3
:0604F500BAD103020870F9
:0604FB00BAD2030208AFB3
:06050100BADD030208D67A
:0305070002095492
:0C050A0090E6BAE0FA6027BA0102800512
:05051600BA021F800B7A
:0B051B0075120075820412097D801229
:0A05260075120075828812097D30FD
:06053000010675090075CB
:020536000800BB
:0405380075820122A5
:04053C0075820122A1
:0905400090E6BDE06003020954DD
:0E05490090E6BAE01392B490E6BAE0FA30E120
:0B0557001B75120075820212097D75F1
:09056200120075828612097D2049
:06056B0001067509007590
:02057100080080
:04057300758201226A
:090577001215E7D204758201227D
:0A05800090E6BCE0FABA28028005FC
:05058A00BA291C800EDF
:0E058F0090E7407452F090E7417445F0800C04
:0C059D0090E7407456F090E7417442F083
:0E05A90090E68AE4F090E68B7402F075820111
:0105B7002221
:0305B800020A959F
:0C05BB0090E678E0FA30E4047A01800257
:0205C7007A00B8
:0E05C90090E740EAF090E68AE4F090E68B744A
:0605D70001F07582012213
:0E05DD0090E6BAE0700C90E6FBE0FA90E74082
:0405EB00F0020645CF
:0E05EF0090E6BAE0FABA012490E6FBE044027E
:0E05FD00F090E7407401F090E680E0440AF0D0
:0E060B009005DC1216B390E680E0FA54F7F08A
:02061900802A35
:0E061B0090E6BAE0FABA022290E6FBE054FD47
:0E062900F090E7407402F090E680E0440AF0A2
:0E0637009005DC1216B390E680E0FA54F7F05E
:0E06450090E68AE4F090E68B7401F075820175
:010653002284
:0E06540090200DE493FA74302A90E740F09065
:0E066200E741742EF090200CE493FAC4540F7C
:0E067000FB740F5B243090E742F0740F5A24A5
:0E067E003090E743F090E744E4F090E68AF015
:0A068C0090E68B7405F075820122E0
:0C06960090E6BAE0FA90E648F002095441
:0C06A20090E6BAE0FA90E649F002095434
:0D06AE0090E745E5AAF090E7467412F09041
:0E06BB00E7477434F090E6BAE0FA6031BA0115
:0306C9000280515B
:0606CC00BA0203020761FF
:0606D200BA0403020798C0
:0606D800BA06030207CF81
:0606DE00BA080302080542
:0506E400BA81028056FE
:0606E900BA86030207CFF0
:0606EF00BA8803020805B1
:0306F50002083BBD
:0D06F80090E6A0E090E740F090E68AE090E8
:0D070500E741F090E68BE0FA90E742F090BB
:0B071200E743E4F090E744F0020861C8
:0E071D0090E6A1E090E740F090E741E4F09014
:0E072B00E68DE0FA90E742F090E743E4F090AC
:06073900E744F002086134
:0E073F0090E6A2E090E740F090E741E4F090F1
:0E074D00E68FE0FA90E742F090E743E4F09088
:06075B00E744F002086112
:0D07610090E6A3E090E740F090E690E09075
:0E076E00E741F090E691E090E742F090E6ABB4
:0E077C00E090E743F090E6ACE090E744F090A8
:0E078A00E6837402F0E0FA90E746F0020861A0
:0D07980090E6A4E090E740F090E694E09039
:0E07A500E741F090E695E090E742F090E6AD77
:0E07B300E090E743F090E6AEE090E744F0906F
:0E07C100E6837404F0E0FA90E746F002086167
:0D07CF0090E6A5E090E740F090E698E090FD
:0E07DC00E741F090E699E090E742F090E6AF3A
:0E07EA00E090E743F090E6B0E090E744F09036
:0D07F800E6837416F0E0FA90E746F0805CAE
:0D08050090E6A6E090E740F090E69CE090C1
:0E081200E741F090E69DE090E742F090E6B1FD
:0E082000E090E743F090E6B2E090E744F090FD
:0D082E00E6837418F0E0FA90E746F08026AB
:0E083B0090E740E4F090E6BBE090E741F090DB
:0E084900E6BAE090E742F090E6BDE090E743AB
:0A085700F090E6BCE0FA90E744F0F0
:0E08610090E68AE4F090E68B7408F075820150
:01086F002266
:0E08700090E6BAE0FABA010690E60174E3F0F1
:0E087E0090E6BAE0FABA020690E60174A3F022
:0E088C0090E601E090E740F090E7417412F032
:0E089A0090E7427434F090E68AE4F090E68B2A
:0708A8007403F075820122C8
:0D08AF0090E6BAE0F5B090E740E5B0F090BB
:0E08BC00E7417412F090E7427434F090E68A3F
:0C08CA00E4F090E68B7403F075820122CC
:0D08D60090E6A3E090E740F090E6A5E090EA
:0E08E300E741F090E6A4E090E742F090E6A630
:0E08F100E090E743F090E6A1E090E744F0903D
:0E08FF00E6A2E090E745F090E746E5AAF0900B
:07090D00E7477408F07A08C7
:03091400BA4000E6
:09091700502DE50BB50A02802603
:0C0920008A030AEB2440FBE434E7FCE50A
:07092C000B2420F582E434E6
:0B09330031F583E0FD8B828C83F0E542
:08093E000B04547FF50B80CE81
:0E09460090E68AE4F090E68BEAF075820122DA
:040954007582002286
:0A095800AA82E50A04547FFBB50BE8
:0409620003D2052295
:070966003005047A21C205EF
:08096D00E50A2420F582E434C0
:0809750031F583EAF08B0A2240
:0E097D00AA82758251C002120958D002740F6E
:0D098B005A2430F582C002120958D002E54E
:0C09980012601A740F5AFB74805AC423BA
:0E09A400541FFC90E683EC2BF090E683E0FB02
:0309B2004420F0EE
:0E09B500740F5AFBBB0126BA01067BA17CE63B
:0209C3008004AE
:0409C5007BA27CE6AF
:0E09C9007D008B828C838DF0121709FE530681
:0B09D700FE8B828C838DF0EE02169ADE
:0E09E20090E60474804AF00000000090E604E5
:0B09F000E4F000000000BA01028020CB
:0509FB00E4BA02010452
:080A0000FE7028BA04028023F5
:050A0800BA8102801616
:050A0D00E4BA860104BB
:080A1200FF7056BA8802805102
:010A1A0022B9
:080A1B0090E6A1E054FEF02278
:080A230090E6A2E054FEF0226F
:090A2B00EE60067EA378E680046B
:040A34007EA478E63E
:0D0A38008E0388047D008B828C838DF0126C
:0E0A45001709FE5306FE8B828C838DF0EE1295
:0E0A5300169A43028090E649EAF00000000087
:0A0A610090E649EAF00000000022D0
:090A6B00EF60067AA57EE6800426
:040A74007AA67EE6FA
:0D0A78008A038E047D008B828C838DF0122A
:0E0A85001709FA5302FE8B828C838DF0EA0271
:020A9300169AB1
:0C0A950090E678E0FA30E4047A51800F1B
:0E0AA10090E6BBE0FB74035BF5F0745045F08B
:010AAF00FA4C
:0D0AB00090E6BEE0FB24BF500475820022DA
:0E0ABD0090E6B8E0FC30E73790E6BBE0FD7C49
:0C0ACB000090E6BAE07F004CF52FEF4DE4
:050AD700F5308B3175C4
:060ADC0032007533407585
:0A0AE20034E77535008A82C0031264
:0E0AEC001272D00390E68AE4F090E68BEBF0F5
:020AFA00801E5C
:0A0AFC0090E6BAE0FB8B17751800B6
:070B0600751BBC751CE675B0
:070B0D001D00751901E4F55C
:060B14001A8A8212127021
:040B1A0075820122BD
:0A0B1E00E582FA7014AA17AB18ACB8
:0C0B2800198A828B838CF0E412169A75F7
:030B340082012219
:040B370075820022A1
:0A0B3B00E582FA701AE513701675D2
:090B4500120175820412097D758C
:0C0B4E00120175828812097D7582012257
:0A0B5A00BA011AE5137016751201B6
:0C0B640075820212097D751201758286EF
:070B700012097D75820122CC
:040B77007582002261
:040B7B00758201225C
:070B7F00AA82BA0102800402
:040B86007582002252
:0C0B8A007582431209583000067A007B87
:030B9600028004D6
:040B99007A407B0023
:0E0B9D008B0490E624ECF0000000008A057E38
:0E0BAB000090E625EDF00000000090E626EC3C
:0C0BB900F00000000090E627EDF0300096
:070BC500067CFD7D098004A0
:040BCC007C7D7D00AF
:0E0BD0008C028D038B0490E634ECF0000000E4
:0D0BDE00007B0090E635EAF000000000907A
:0E0BEB00E636ECF00000000090E637EAF07508
:030BF90082012254
:020BFC007A007D
:0D0BFE0090E68DE0FBC3EA9B4003020CD59E
:0E0C0B00EA2480F582E434E7F583E0FBBB7E4B
:070C19000A750C00C206C2BF
:040C200007020CD1EA
:080C2400BB7D05D206020CD1D4
:080C2C00BB7B05D207020CD1CD
:080C3400300605630320C2062F
:090C3C0074E0250C4010AC0C051D
:080C45000CEC2400F582E434FC
:050C4D0031F583EBF01E
:060C5200200703020CD193
:0A0C5800C002120CDCD002AC08054B
:080C620008EC2400F582E434E3
:080C6A0030F583747EF07C007C
:0B0C7200C3EC950C50568C050CED24D3
:0A0C7D0000F582E43431F583E0FB5A
:090C8700C3EC950C4011AD080509
:080C900008ED2400F582E434B4
:060C980030F583747BF0CF
:030C9E00BB7A001E
:0A0CA1004019EB24814014AD080552
:080CAB0008ED2400F582E43499
:090CB30030F583747DF063032029
:060CBC00AD080508ED245F
:0A0CC20000F582E43430F583EBF016
:020CCC0080A402
:030CCE00750CFFA3
:040CD1000A020BFE0A
:070CD50090E68D7401F0228E
:090CDC0074FD250C4003020D9784
:0E0CE500120DA1903100E0FA74FE5AF5821251
:090CF3000DB3E5826003020D94CB
:0A0CFC00903101E0F582120DB39073
:0B0D06003100E0FA30E05C120DA1901B
:090D11003100E0F582120DB390EF
:080D1A003100E4F0150C7A0130
:0A0D2200C3EA950C503EEA2400FBE2
:0C0D2C00E43431FC8A057E000DBD00019E
:010D38000EAC
:0C0D3900AF0C7800EDB50708EEB5000423
:040D450074018001B4
:010D4900E4C5
:0E0D4A00F582C002C003C004120DE4AD82D0D9
:0E0D580004D003D0028B828C83EDF00A80BCA5
:030D6600020E1466
:020D69007A020C
:0A0D6B00C3EA950C5017EA2400F5C6
:0C0D750082E43431F583E0F582C0021204
:070D81000DB3D0020A80E36C
:090D8800120E14903100E4F07524
:030D91000C012230
:030D9400120E1428
:0A0D970090310074FFF0750C01228A
:0D0DA100D2B7120E2CD2B5120E24C2B7121A
:050DAE000E28C2B52271
:040DB300E5827B0852
:0C0DB700120E2C3392B7120E2CD2B51283
:0C0DC3000E28C2B5DBEE120E2CD2B712C7
:0E0DCF000E2CD2B5A2B6740033120E28C2B597
:070DDD00F58222758200225D
:090DE400AD82120E2CD2B77B087F
:0E0DED00120E2CD2B5A2B6120E28C2B53312C9
:0E0DFB000E2CDBEEF582ED1392B7120E2CD209
:0B0E0900B5120E28C2B522758200222F
:0B0E1400120E2CC2B7120E2CD2B51229
:050E1F000E28D2B722ED
:040E24007C108006B8
:040E28007C0D8002BB
:020E2C007C0840
:030E2E00DCFE22C5
:040E31007A007B00C8
:0E0E350090E68DE0FC7D00C3EA9CEB64808DAE
:0B0E4300F063F08095F04003020EFF0A
:0D0E4E00EA2480F582EB34E7F583E0FCE553
:060E5B000D6036150D20AC
:0C0E610008108C82C002C003120F06D0E3
:060E6D0003D002020EF7A3
:0E0E73008C82C002C003120F42AC82D003D0AA
:070E810002AD080508ED2495
:0A0E880000F582E43430F583ECF04D
:020E920080637B
:0C0E9400EC30E70CECA2E69208743F5C26
:040EA000F50D805379
:070EA400EC20E503BC1E2D4C
:0E0EAB0074105C0303543FFD4305B074035CF8
:0A0EB9004DF5B0EC30E637AD08054A
:080EC30008ED2400F582E4347F
:0C0ECB0030F583A2B3E4334410FDF08046
:010ED7001FFB
:050ED800BC5F02801A5E
:0A0EDD00EC30E616AC080508EC2422
:0A0EE70000F582E43430F583A2B375
:060EF100E4334410FCF0A4
:050EF7000ABA00010B26
:030EFC00020E35AE
:070EFF0090E68D7401F02262
:0E0F0600E5821392B2D2B013C2B092B2D2B052
:0E0F140013C2B092B2D2B013C2B092B2D2B039
:0E0F220013C2B092B2D2B013C2B092B2D2B02B
:0E0F300013C2B092B2D2B013C2B092B2D2B01D
:040F3E0000C2B0221B
:0E0F4200E582A2B31392B2D2B0C2B0A2B31332
:0E0F500092B2D2B0C2B0A2B31392B2D2B0C26B
:0E0F5E00B0A2B31392B2D2B0C2B0A2B313923B
:0E0F6C00B2D2B0C2B0A2B31392B2D2B0C2B031
:0E0F7A00A2B31392B2D2B0C2B0A2B31392B21D
:070F8800D2B0C2B0F58222D5
:0A0F8F00E508C39509FA24BF5002DB
:020F99007A409C
:020F9B007B00D9
:0E0F9D00C3EB9A5020EB24C0FCE434E7FDAE19
:050FAB00090509EE2418
:0A0FB00000F582E43430F583E0FE22
:080FBA008C828D83F00B80DBBB
:060FC20090E68FEAF02228
:0C0FC800C0E0C082C083D2035391EF90C0
:0C0FD400E65D7401F0D083D082D0E032E2
:0E0FE000C0E0C082C0835391EF90E65D7402C2
:080FEE00F0D083D082D0E03284
:010FF60032C8
:010FF70032C7
:0C0FF800C022C0E0C0F0C082C083C00274
:0E100400C003C004C005C006C007C000C00184
:0E101200C0D075D0001215C35391EF90E65D6B
:0E1020007410F0D0D0D001D000D007D006D090
:0E102E0005D004D003D002D083D082D0F0D001
:04103C00E0D02232AC
:0C104000C022C0E0C0F0C082C083C0022B
:0E104C00C003C004C005C006C007C000C0013C
:0E105A00C0D075D0001215D55391EF90E65D11
:0E1068007420F0D0D0D001D000D007D006D038
:0E10760005D004D003D002D083D082D0F0D0B9
:04108400E0D0223264
:011088003235
:011089003234
:01108A003233
:01108B003232
:01108C003231
:01108D003230
:01108E00322F
:01108F00322E
:01109000322D
:01109100322C
:01109200322B
:01109300322A
:011094003229
:011095003228
:011096003227
:011097003226
:011098003225
:011099003224
:01109A003223
:01109B003222
:01109C003221
:01109D003220
:01109E00321F
:01109F00321E
:0110A000321D
:0110A100321C
:0110A200321B
:0110A300321A
:0110A4003219
:0110A5003218
:0110A6003217
:0110A7003216
:0110A8003215
:0110A9003214
:0110AA003213
:0110AB003212
:0E2000001201000200FFFF40FB0910601101F9
:04200E0001020301C7
:0A2012000A06000200FFFF40010073
:09201C00090245000201008032B6
:0E2025000904000002FFFFFF0007050402008F
:0E2033000200070588020002000904010004F3
:0E204100FFFFFF0007050202000200070586F0
:0E204F000200020007050102400000070581A3
:04205D00024000003D
:0920620009024500020100803270
:0E206B000904000002FFFFFF00070504024009
:0E207900000007058802400000090401000471
:0E208700FFFFFF00070502024000000705866C
:0E20950002400000070501024000000705811F
:0420A30002400000F7
:0920A80009022000010100803250
:0E20B1000904000002FFFFFF000705010240C6
:0920BF0000000705810240000049
:0920C80009021B00020100803234
:0E20D1000904000000FFFFFF000904010000E9
:0420DF00FFFFFF0000
:0120E30006F6
:0420E40004030904E4
:0120E90010E6
:0E20EA000E0341006C0074006500720061007E
:0120F9008462
:0E20FA002E035500530042002D0042006C00E2
:0E210800610073007400650072002000490041
:0E21160049002000280065006D007000740074
:042124007900290015
:01217D000061
:04217E000403300026
:0510AC00E5822582FA37
:0810B10090E678E0FB20E6F870
:0E10B90090E678E04480F090E678E0FB30E2CC
:0D10C7000C90000AC0021216B3D00280E5A2
:0510D40090E679EAF04E
:0E10D90090E678E0FB30E0F890E678E0FB204F
:0E10E700E2D090E678E0FB20E10A90E678E0A7
:0610F500FB4440F080B650
:0410FB007B007C00FA
:0A10FF00C3EB9523EC952450478BBA
:08110900058C060BBB00010C74
:09111100ED2525FDEE3526FEAFAB
:0C111A00278D828E838FF0121709FD9044
:03112600E679F077
:0E11290090E678E0FD30E0F890E678E0FD30EA
:05113700E2030210B903
:0E113C0090E678E0FD20E1BB90E678E0FB4411
:05114A0040F00210B1AD
:09114F0090E678E04440F0D32260
:0C115800E5822582FA4302017401B528EB
:0911640008E4B5290474018001BE
:01116D00E49D
:01116E00FB85
:08116F0090E678E0FC20E6F8B0
:0E1177007C007D0090E678E04480F090E67801
:0D118500E0FE30E21090000AC002C003122C
:0811920016B3D003D00280DD8A
:05119A0090E679EAF087
:0E119F0090E678E0FE30E0F890E678E0FE2082
:0E11AD00E2C890E678E0FE20E10A90E678E0E5
:0611BB00FE4440F080AE8E
:0B11C100EB600890E678E0FE4420F0B0
:0911CC0090E679E0E4F52DF52E22
:0A11D5007401252DF8E4352EF9C34E
:0811DF00E89528E99529505616
:0E11E70090E678E0F830E0F890E678E0F83036
:0511F500E20302117786
:0A11FA007402252DF8E4352EF9E803
:0A120400B5280CE9B5290890E6783A
:05120E00E0F84420F0AF
:05121300A82DA92E0525
:061218002DE4B52D0205D6
:01121E002EA1
:06121F00AC2DAD2EE82508
:071225002AF8E9352BF9AEB0
:0C122C002C90E679E0FF888289838EF028
:0512380012169A8098D7
:0E123D0090E678E0FE30E0F890E678E0FE30D3
:05124B00E2030211772F
:0C12500090E678E04440F0EC252AFCED2C
:0A125C00352BFDAA2C90E679E08CFA
:0A126600828D838AF012169AD322BB
:02127000C32297
:0E127200AA827B0090E678E0FC30E4067B0167
:04128000AC308C36CC
:0A1284008B040BEC2436F8AC2F7D30
:0E128E0000A60490E678E0FC54186002803858
:04129C0085333A85D7
:0312A000343B8557
:0312A300353C8552
:0312A60031388557
:0212A9003239D8
:0512AB00AF38AC39155D
:0712B0003874FFB538021588
:0112B70039FD
:0A12B800EF4C6016853A82853B83F7
:0A12C200853CF0E412169AA3858221
:0612CC003A85833B80D946
:0212D200C32235
:0612D4008B237524007558
:0312DA0025367541
:0A12DD0026007527408A82C0021225
:0812E70010ACD0025016853155
:0312EF002885321D
:0312F20029853318
:0312F5002A853413
:0312F8002B85350E
:0812FB002C8A821211584005F3
:05130300753A008003B3
:03130800753A0132
:05130B00E53A24FF2279
:0601EA00E478FFF6D8FDE9
:0801C8007900E94400601B7A94
:0501D0000090172978E2
:0301D500A0759280
:0A01D80031E493F2A308B800020519
:0801E20092D9F4DAF27592FFE4
:040228007515627571
:02022C0016209A
:0D13100090E6B8E0FA546060047AFF8005B2
:05131D0090E6B9E0FAC2
:08132200EA24F4500302141E3A
:07132A00EA2A2A9013317337
:0713310002135502136A02CA
:06133800141E02137F02E7
:06133E00141E02141E0241
:06134400139402141E02C6
:06134A00139A0213B20227
:0513500013CC021400A3
:0A135500121492E5826003021433C3
:0B135F0090E6A0E0FA4401F002143315
:0A136A001214FCE582600302143344
:0B13740090E6A0E0FA4401F002143300
:0A137F0012153AE5826003021433F0
:0B13890090E6A0E0FA4401F0021433EB
:061394001215F0021433F3
:0E139A00120B7BAA8290E740EAF090E68AE40C
:0A13A800F090E68B7401F00214339C
:0E13B20090E6BAE0F582120B7FE5826003023E
:0213C0001433E4
:0A13C20090E6A0E0FA4401F0806715
:0913CC0090E6BCE0FA75171475F7
:0813D50018007519408A82120C
:0E13DD000B1EE582700A90E6A0E0FA4401F0D3
:0213EB0080463A
:0C13ED0090E740E514F090E68AE4F090F0
:0713F900E68B7401F0803364
:0C14000090E6BCE0FA90E6BAE0F5138A32
:0E140C0082120B3BE582701F90E6A0E0FA44CE
:04141A0001F0801548
:0E141E0090E6B9E0F5821204ACE58270089009
:07142C00E6A0E0FA4401F024
:0814330090E6A0E04480F022E5
:0E143B00AA82747F5AFB24F74049EB2B2B90BA
:03144900144C73CD
:07144C0002146702146B0299
:06145300147E02148E025B
:06145900148202148E0251
:06145F00148602148E0247
:02146500148AE7
:0414670090E6A02249
:0A146B00EA30E7067AA27BE680046F
:041475007AA17BE6F7
:051479008A828B832232
:04147E0090E6A3222F
:0414820090E6A4222A
:0414860090E6A52225
:04148A0090E6A62220
:04148E0090000022A8
:0A14920090E6B8E0FABA8002800A82
:05149C00BA8102800589
:0514A100BA8250801525
:0E14A60090E740E4F090E741F090E68AF09085
:0714B400E68B7402F0803D9D
:0E14BB0090E6BCE0F58212143BAA82AB83EAF5
:0614C9004B7003F58222C6
:0D14CF008A828B83E0FA30E0047A0180020B
:0214DC007A0094
:0E14DE0090E740EAF090E741E4F090E68AF0F3
:0814EC0090E68B7402F080040D
:0414F40075820022DB
:0414F80075820122D6
:0C14FC0090E6B8E0FA6005BA0227800A0A
:0A15080090E6A0E0FA4401F0802410
:0D15120090E6BAE0700B90E6BCE0F58212A6
:04151F00097D8013AF
:0A15230090E6A0E0FA4401F0800910
:09152D0090E6B9E0F5820204AC7D
:041536007582012297
:0C153A0090E6B8E0FA6005BA024D800EA1
:0A15460090E6BAE0FABA0202804A09
:04155000758200227E
:0D15540090E6BAE0703390E6BCE0F582123C
:0E156100143BAA82AB83758253C002C00312F2
:0D156F000958D003D002EA4B7003F5822228
:0E157C008A828B83E0FC4304018A828B83EC1D
:03158A00F0800DE1
:04158D007582002241
:0915910090E6B9E0F5820204AC19
:04159A007582012233
:05159E00300107751586
:0315A300A8751612
:0215A600202201
:0515A80030020775157B
:0315AD00C87516E8
:0215B0002022F7
:0515B200300007751573
:0315B7001C75168A
:0215BA002022ED
:0415BC0075156275CA
:0315C000162022D0
:0515C300D310AF01C3CD
:0D15C800C0D07582001203FAD0D092AF227D
:0515D500D310AF01C3BB
:0D15DA00C0D07582011203FAD0D092AF226A
:0915E70090E6BAE024FF92012213
:0A15F00090E6BBE0FABA0102801396
:0515FA00BA020280218D
:0515FF00BA0302802D7B
:06160400BA060302167F86
:03160A0002169233
:0A160D007A007B2090E6B3EBF07A40
:09161700007B2090E6B4EAF02209
:0A16200012159E90E6B3E516F0AA3D
:07162A001590E6B4EAF0227E
:0A1631007AE47B207C8090E6BAE0AA
:03163B00FD7E0031
:0E163E00C3EE9D502474FF2AFF74FF3BF88C0E
:0E164C00018F82888389F0121709FF7005FA5A
:04165A00FBFC80090C
:09165E00EF2AFAE43BFB0E80D7F1
:0E166700EA4B4C600B90E6B3EBF090E6B4EA71
:02167500F02261
:0816770090E6A0E04401F0221E
:0A167F007A127B2090E6B3EBF07ABC
:09168900127B2090E6B4EAF02285
:0816920090E6A0E04401F02203
:0E169A0020F71030F6118883A88220F507F69D
:0516A800A8837583001A
:0116AD00221A
:0316AE00F280F7D0
:0216B100F02225
:0300430002220096
:0300530002220086
:09220000020FC800020FE0000209
:082209000FF600020FF70002BE
:082211000FF80002104000026A
:0822190010880002109D000274
:0822210010890002108A00027E
:08222900108B0002108C000272
:08223100108D0002108E000266
:08223900108F0002109000025A
:0822410010910002109D000243
:08224900109200021093000244
:08225100109400021095000238
:0822590010960002109700022C
:0822610010980002109D00021C
:08226900109D0002109D00020F
:0822710010990002109A00020E
:08227900109B0002109C000202
:08228100109E0002109F0002F4
:0822890010A0000210A10002E8
:0822910010A2000210A30002DC
:0822990010A4000210A50002D0
:0822A10010A6000210A70002C4
:0822A90010A8000210A90002B8
:0722B10010AA000210AB00AF
:0801F0007800E84400600A7980
:0301F800007592FD
:0601FB0030E4F309D8FC1A
:0802010078A0E84401600C79CB
:0B02090002903000E4F0A3D8FCD9FA0A
:0E16B300AA82AB8390E600E05418C423541FB3
:0416C100FCB4010074
:0B16C500E433FC60067CB17D00801C5B
:0E16D00090E600E05418C423541FFEBE01062D
:0616DE007E617F01800423
:0416E4007EC27F0241
:0416E8008E048F05D8
:0416EC008C178D18B2
:0816F000151774FFB517021570
:0116F80018D9
:0A16F900E517451870F11ABAFF0159
:011703001BCA
:05170400EA4B70E42235
:0301BB0075813C0F
:0A01BE00121725E58260030201B666
:0E17090020F71430F6148883A88220F507E636
:06171700A8837583002287
:03171D00E280F770
:03172000E493222D
:02172300E022C2
:0417250075820022A7
:00000001FF
